:020000040040BA
:1000000048064020E5014000E1014000E1014000D8
:10001000E1014000E1014000E1014000000000007A
:10002000000000000000000000000000E1014000AE
:10003000E101400000000000E1014000E10140005A
:10004000E1014000E1014000E1014000E101400028
:10005000E1014000E1014000E1014000E101400018
:10006000E101400000000000E1014000E10140002A
:10007000E1014000E1014000E1014000E1014000F8
:10008000E1014000E1014000E1014000E1014000E8
:10009000E1014000E1014000E1014000E1014000D8
:1000A000E1014000E1014000E1014000E1014000C8
:1000B000E1014000E1014000E1014000E1014000B8
:1000C000E1014000E1014000E1014000E1014000A8
:1000D000E1014000E1014000E1014000E101400098
:1000E000E1014000E1014000E1014000E101400088
:1000F000E1014000E1014000E1014000E101400078
:10010000E1014000E1014000E1014000E101400067
:10011000E1014000E101400000000000000000009B
:10012000E1014000E1014000E1014000E101400047
:10013000E1014000E1014000E1014000E101400037
:10014000E1014000E1014000E1014000E101400027
:10015000E1014000E1014000E1014000E101400017
:10016000E1014000E101400010B5054C237833B9AE
:10017000044B13B10448AFF300800123237010BD7A
:100180000C00402000000000E40940000C4B43B18B
:100190000C480D4910B5AFF300800C48036823B933
:1001A00010BD0A48036833B97047094B002BF7D0DC
:1001B000BDE810401847064B002BF5D0184700BF8C
:1001C00000000000E409400010004020E409400065
:1001D0000000000008B5014B984708BD110340001E
:1001E000FEE7000008B5104B104A9A4209D00E4BAA
:1001F0000E4A03E011681960043304320C498B4243
:10020000F8D30C4B02E000221A6004330A4A9342EE
:10021000F9D30A4A0A4B23F07F039360094B9847AE
:10022000094B9847FEE700BF00004020E40940006A
:100230000C0040200C0040204400402000ED00E075
:10024000000040002109400001094000134B1A6FD3
:1002500022F080621A675A6F42F080625A674FF04C
:1002600080625A601A6F22F000621A675A6F42F079
:1002700000625A674FF000625A601A6F22F0807273
:100280001A675A6F42F080725A674FF080725A6054
:100290004FF000721A631A611A60704700120E4024
:1002A000054BD3F8083113F4806F04D14FF480620A
:1002B000014BC3F80021704700060E4010B5084BF3
:1002C0009847084B9847084C01462046074B9847EB
:1002D00007492046074B9847074B984710BD00BF7A
:1002E000A10240009D0840002C004020090440006D
:1002F00000800540290440004D02400008B5024836
:10030000024B984708BD00BF10E000E0A503400085
:1003100008B50A4B98470A4B9B6913F4805F03D1D9
:100320004FF48052064B1A61064A536843F4004367
:100330005360054B9847054B984708BD9D05400005
:1003400000060E4050180E40BD024000FD02400065
:1003500010B582B0074C01A92046074B98472046AC
:10036000064B98470C2206490198064B984702B065
:1003700010BD00BF2C00402059054000790440000A
:1003800000004020D9034000EFF31083036072B6F1
:10039000BFF35F8F7047BFF35F8F036883F31088ED
:1003A0007047000008B5024B1860024B984708BD23
:1003B00028004020B508400010B5044B1C68044BD1
:1003C000984701462046034B984710BD280040201F
:1003D0008B054000C108400070B5164604460D4626
:1003E000002818BF002914BF01200020342204492E
:1003F000044B98472368324629462046984770BDEB
:10040000680940008505400038B50D46044639228C
:100410000349003018BF0120024B9847256038BDC2
:100420007C0940008505400038B504460D4600288B
:1004300018BF002914BF01200020402209490A4B9F
:100440009847204640F8045F2946084B9847002803
:1004500007DB4FF40043A382054B2361054BE360A8
:10046000002038BD7C09400085054000C1064000E1
:100470001D054000E104400010B50446572205491F
:10048000003018BF0120044B9847201D034B9847AC
:1004900010BD00BF7C094000850540006907400091
:1004A00030B585B005460C46002818BF002914BF9A
:1004B00001200020B3220749074B98472368019386
:1004C00063680293A368039301A9281D034B98470F
:1004D00005B030BD7C094000850540009D07400007
:1004E00070B584B00E4615460446A3220849003074
:1004F00018BF0120074B98470023029301960395EC
:1005000001A9A4F10C00044B984704B070BD00BFD2
:100510007C09400085054000A104400070B584B00E
:100520000E461546044687220849003018BF0120B0
:10053000074B9847029600230193039501A9A4F164
:100540000C00044B984704B070BD00BF7C0940000C
:1005500085054000A104400038B504460D4600283A
:1005600018BF002914BF01200020BD220349044BFD
:1005700098470C342C60002038BD00BF7C09400037
:100580008505400000B900BE70474FF4967303FB29
:1005900000F04FF47A7303FB00F0704700B583B0AE
:1005A00001A80E4B98470E4AD2F8883043F47003E6
:1005B000C2F88830BFF34F8FBFF36F8F01A8094B8C
:1005C0009847094A136823F4706343F4C0631360C7
:1005D000064B984703B05DF804FB00BF8903400059
:1005E00000ED00E097034000000C0E408D06400037
:1005F0000E490A6A22F002020D4B13430B620B4BA9
:100600009B6E13F0010FFAD0084B196A094A0A438E
:100610001A62996A084A0A409A62084A9A62034B27
:100620009B6E13F0020FFAD0704700BF00060E4019
:10063000013E370000003701FFFF00F8013F18209E
:10064000114A136B23F0700313630F4B9B6E13F06F
:10065000080FFAD00C4A136B23F4407343F48073F1
:100660001363094B9B6E13F0080FFAD0064A136B05
:1006700023F0030343F002031363034B9B6E13F059
:10068000080FFAD0704700BF00060E4008B5024BB5
:100690009847024B984708BDF105400041064000CD
:1006A0000123036000207047044B0344C3F3074356
:1006B000052B01D000207047012070470080FFBF4C
:1006C00070B506460C460846204B984700233BB3BE
:1006D00000254FF49A721E49002E18BF002C14BF3B
:1006E000012000201B4B984755B3236913F4803F2A
:1006F00029D18023236034606A68174B134023603C
:10070000AB68164A1A40164B13436360EB682363C9
:100710002B8AF380EB6803F0F0033371002070BD87
:1007200003EB83018A000F498A5C904202D00133B7
:10073000DBB2CCE703EB8305AB000D461D44C8E7F5
:100740006FF00C0070BD6FF0100070BDA906400086
:10075000AC094000850540007CFFFFFE6FFFF1FF04
:1007600010000E009809400010B5044668B10368F7
:100770004BB101204FF4B9720549064B98472068E8
:10078000054B984710BD0020F4E70020F2E700BFBA
:10079000AC09400085054000A10640002DE9F0416C
:1007A00086B007460D4604680B6801934B680293B8
:1007B00000230393049303798DF81430261C18BF8B
:1007C000012640F23122334900280CBF002006F0F8
:1007D0000100314B9847236913F4803F22D16FF019
:1007E000130053E0002335E0507841EA0021023243
:1007F000019201330393E160D4F8108040F2222289
:1008000024493046244B984718F0080F38D06FF031
:100810001200002836DB0398AB68984202D3049A92
:1008200093422FD9236913F0010FDBD0A3689BB249
:10083000029A5AB1511C029113709DF81420012A9A
:1008400004D90A46013102911B0A1370049B01333B
:1008500004930123002BCFD1039B049A9A42CBD35C
:10086000F988226912F0020FC6D0019A002AC0D07E
:10087000511C019111789DF814000128B4D8B8E7F3
:100880000020C6E7236913F4007FFBD006B0BDE863
:10089000F08100BFAC094000850540000020704792
:1008A000034B6FF07F425A6005221A60704700BF09
:1008B00010E000E008B5014B984708BDA1084000D2
:1008C000080E0DE00D4B6FF07F40586098600B4BA9
:1008D0001B6813F4803FFAD001F17F4101311046CB
:1008E000431EDAB20028EDD1044B59609960034BE6
:1008F0001B6813F4803FFAD0704700BF10E000E09F
:1009000008B5044B9847044B98470120034B984780
:10091000F9E700BFD501400051034000B903400092
:1009200070B50D4E0D4CA41BA4100025A54209D195
:100930000B4E0C4C00F046F8A41BA4100025A54259
:1009400005D170BD56F8253098470135EEE756F8C9
:10095000253098470135F2E7D0094000D009400022
:10096000D0094000D40940002E2E2F68616C2F73EF
:1009700072632F68616C5F696F2E63002E2E2F6883
:10098000616C2F7372632F68616C5F7370695F6D48
:100990005F73796E632E6300010000000000008029
:1009A0000100000002DC9604FFFF00002E2E2F68DD
:1009B000706C2F7370692F68706C5F7370692E6331
:1009C00000000000F8B500BFF8BC08BC9E467047A8
:1009D0008D014000F8B500BFF8BC08BC9E467047CA
:0409E0006901400069
:0C09E40048656C6C6F20576F726C6421CA
:0400000500400000B7
:00000001FF
